{
  "contractName": "SocialNetwork",
  "abi": [
    {
      "constant": true,
      "inputs": [],
      "name": "name",
      "outputs": [
        {
          "name": "",
          "type": "string"
        }
      ],
      "payable": false,
      "stateMutability": "view",
      "type": "function",
      "signature": "0x06fdde03"
    },
    {
      "constant": true,
      "inputs": [
        {
          "name": "",
          "type": "uint256"
        }
      ],
      "name": "posts",
      "outputs": [
        {
          "name": "id",
          "type": "uint256"
        },
        {
          "name": "content",
          "type": "string"
        },
        {
          "name": "tipAmount",
          "type": "uint256"
        },
        {
          "name": "author",
          "type": "address"
        }
      ],
      "payable": false,
      "stateMutability": "view",
      "type": "function",
      "signature": "0x0b1e7f83"
    },
    {
      "constant": true,
      "inputs": [],
      "name": "postCount",
      "outputs": [
        {
          "name": "",
          "type": "uint256"
        }
      ],
      "payable": false,
      "stateMutability": "view",
      "type": "function",
      "signature": "0x17906c2e"
    },
    {
      "constant": true,
      "inputs": [
        {
          "name": "",
          "type": "uint256"
        }
      ],
      "name": "datamapping",
      "outputs": [
        {
          "name": "id",
          "type": "uint256"
        },
        {
          "name": "dataContent",
          "type": "string"
        },
        {
          "name": "author",
          "type": "address"
        },
        {
          "name": "hospital",
          "type": "address"
        },
        {
          "name": "tipAmount",
          "type": "uint256"
        }
      ],
      "payable": false,
      "stateMutability": "view",
      "type": "function",
      "signature": "0x293ec171"
    },
    {
      "constant": true,
      "inputs": [],
      "name": "info",
      "outputs": [
        {
          "name": "",
          "type": "string"
        }
      ],
      "payable": false,
      "stateMutability": "view",
      "type": "function",
      "signature": "0x370158ea"
    },
    {
      "constant": true,
      "inputs": [],
      "name": "dataCount",
      "outputs": [
        {
          "name": "",
          "type": "uint256"
        }
      ],
      "payable": false,
      "stateMutability": "view",
      "type": "function",
      "signature": "0x5da40c47"
    },
    {
      "constant": true,
      "inputs": [],
      "name": "infoCount",
      "outputs": [
        {
          "name": "",
          "type": "uint256"
        }
      ],
      "payable": false,
      "stateMutability": "view",
      "type": "function",
      "signature": "0xff296eaa"
    },
    {
      "inputs": [],
      "payable": false,
      "stateMutability": "nonpayable",
      "type": "constructor",
      "signature": "constructor"
    },
    {
      "anonymous": false,
      "inputs": [
        {
          "indexed": false,
          "name": "id",
          "type": "uint256"
        },
        {
          "indexed": false,
          "name": "content",
          "type": "string"
        },
        {
          "indexed": false,
          "name": "tipAmount",
          "type": "uint256"
        },
        {
          "indexed": false,
          "name": "author",
          "type": "address"
        }
      ],
      "name": "PostCreated",
      "type": "event",
      "signature": "0xc66336337a24e513f909b3b25119854dba8385d51307dbc7d31d1b2805e19c7e"
    },
    {
      "anonymous": false,
      "inputs": [
        {
          "indexed": false,
          "name": "id",
          "type": "uint256"
        },
        {
          "indexed": false,
          "name": "content",
          "type": "string"
        },
        {
          "indexed": false,
          "name": "tipAmount",
          "type": "uint256"
        },
        {
          "indexed": false,
          "name": "author",
          "type": "address"
        }
      ],
      "name": "PostTipped",
      "type": "event",
      "signature": "0x20988fe475351e75813672abada1dddb7ac67cbbeb81e61e1160b8329d8cdf1c"
    },
    {
      "constant": false,
      "inputs": [
        {
          "name": "_datacontent",
          "type": "string"
        }
      ],
      "name": "setData",
      "outputs": [],
      "payable": false,
      "stateMutability": "nonpayable",
      "type": "function",
      "signature": "0x47064d6a"
    },
    {
      "constant": false,
      "inputs": [
        {
          "name": "_id",
          "type": "uint256"
        }
      ],
      "name": "payPatient",
      "outputs": [],
      "payable": true,
      "stateMutability": "payable",
      "type": "function",
      "signature": "0x9417f199"
    },
    {
      "constant": false,
      "inputs": [
        {
          "name": "_info",
          "type": "string"
        }
      ],
      "name": "setInfo",
      "outputs": [],
      "payable": false,
      "stateMutability": "nonpayable",
      "type": "function",
      "signature": "0x937f6e77"
    },
    {
      "constant": true,
      "inputs": [],
      "name": "getInfo",
      "outputs": [
        {
          "name": "",
          "type": "string"
        }
      ],
      "payable": false,
      "stateMutability": "view",
      "type": "function",
      "signature": "0x5a9b0b89"
    },
    {
      "constant": false,
      "inputs": [
        {
          "name": "_content",
          "type": "string"
        }
      ],
      "name": "createPost",
      "outputs": [],
      "payable": false,
      "stateMutability": "nonpayable",
      "type": "function",
      "signature": "0xc7303c61"
    },
    {
      "constant": false,
      "inputs": [
        {
          "name": "_id",
          "type": "uint256"
        }
      ],
      "name": "tipPost",
      "outputs": [],
      "payable": true,
      "stateMutability": "payable",
      "type": "function",
      "signature": "0x74d3c1f8"
    }
  ],
  "bytecode": "0x608060405260008055600060035560006005553480156200001f57600080fd5b506040805190810160405280601e81526020017f4461707020556e697665727369747920536f6369616c204e6574776f726b0000815250600490805190602001906200006d929190620000f1565b50620000bd6040805190810160405280601381526020017f746865206461726b20636f6e206f66206d616e00000000000000000000000000815250620000c3640100000000026401000000009004565b620001a0565b8060029080519060200190620000db929190620000f1565b5060036000815480929190600101919050555050565b828054600181600116156101000203166002900490600052602060002090601f016020900481019282601f106200013457805160ff191683800117855562000165565b8280016001018555821562000165579182015b828111156200016457825182559160200191906001019062000147565b5b50905062000174919062000178565b5090565b6200019d91905b80821115620001995760008160009055506001016200017f565b5090565b90565b61170580620001b06000396000f3fe6080604052600436106100c5576000357c0100000000000000000000000000000000000000000000000000000000900463ffffffff16806306fdde03146100ca5780630b1e7f831461015a57806317906c2e1461024f578063293ec1711461027a578063370158ea146103a257806347064d6a146104325780635a9b0b89146104fa5780635da40c471461058a57806374d3c1f8146105b5578063937f6e77146105e35780639417f199146106ab578063c7303c61146106d9578063ff296eaa146107a1575b600080fd5b3480156100d657600080fd5b506100df6107cc565b6040518080602001828103825283818151815260200191508051906020019080838360005b8381101561011f578082015181840152602081019050610104565b50505050905090810190601f16801561014c5780820380516001836020036101000a031916815260200191505b509250505060405180910390f35b34801561016657600080fd5b506101936004803603602081101561017d57600080fd5b810190808035906020019092919050505061086a565b60405180858152602001806020018481526020018373ffffffffffffffffffffffffffffffffffffffff1673ffffffffffffffffffffffffffffffffffffffff168152602001828103825285818151815260200191508051906020019080838360005b838110156102115780820151818401526020810190506101f6565b50505050905090810190601f16801561023e5780820380516001836020036101000a031916815260200191505b509550505050505060405180910390f35b34801561025b57600080fd5b50610264610952565b6040518082815260200191505060405180910390f35b34801561028657600080fd5b506102b36004803603602081101561029d57600080fd5b8101908080359060200190929190505050610958565b60405180868152602001806020018573ffffffffffffffffffffffffffffffffffffffff1673ffffffffffffffffffffffffffffffffffffffff1681526020018473ffffffffffffffffffffffffffffffffffffffff1673ffffffffffffffffffffffffffffffffffffffff168152602001838152602001828103825286818151815260200191508051906020019080838360005b83811015610363578082015181840152602081019050610348565b50505050905090810190601f1680156103905780820380516001836020036101000a031916815260200191505b50965050505050505060405180910390f35b3480156103ae57600080fd5b506103b7610a66565b6040518080602001828103825283818151815260200191508051906020019080838360005b838110156103f75780820151818401526020810190506103dc565b50505050905090810190601f1680156104245780820380516001836020036101000a031916815260200191505b509250505060405180910390f35b34801561043e57600080fd5b506104f86004803603602081101561045557600080fd5b810190808035906020019064010000000081111561047257600080fd5b82018360208201111561048457600080fd5b803590602001918460018302840111640100000000831117156104a657600080fd5b91908080601f016020809104026020016040519081016040528093929190818152602001838380828437600081840152601f19601f820116905080830192505050505050509192919290505050610b04565b005b34801561050657600080fd5b5061050f610c59565b6040518080602001828103825283818151815260200191508051906020019080838360005b8381101561054f578082015181840152602081019050610534565b50505050905090810190601f16801561057c5780820380516001836020036101000a031916815260200191505b509250505060405180910390f35b34801561059657600080fd5b5061059f610cfb565b6040518082815260200191505060405180910390f35b6105e1600480360360208110156105cb57600080fd5b8101908080359060200190929190505050610d01565b005b3480156105ef57600080fd5b506106a96004803603602081101561060657600080fd5b810190808035906020019064010000000081111561062357600080fd5b82018360208201111561063557600080fd5b8035906020019184600183028401116401000000008311171561065757600080fd5b91908080601f016020809104026020016040519081016040528093929190818152602001838380828437600081840152601f19601f820116905080830192505050505050509192919290505050611031565b005b6106d7600480360360208110156106c157600080fd5b810190808035906020019092919050505061105d565b005b3480156106e557600080fd5b5061079f600480360360208110156106fc57600080fd5b810190808035906020019064010000000081111561071957600080fd5b82018360208201111561072b57600080fd5b8035906020019184600183028401116401000000008311171561074d57600080fd5b91908080601f016020809104026020016040519081016040528093929190818152602001838380828437600081840152601f19601f820116905080830192505050505050509192919290505050611340565b005b3480156107ad57600080fd5b506107b6611513565b6040518082815260200191505060405180910390f35b60048054600181600116156101000203166002900480601f0160208091040260200160405190810160405280929190818152602001828054600181600116156101000203166002900480156108625780601f1061083757610100808354040283529160200191610862565b820191906000526020600020905b81548152906001019060200180831161084557829003601f168201915b505050505081565b6006602052806000526040600020600091509050806000015490806001018054600181600116156101000203166002900480601f01602080910402602001604051908101604052809291908181526020018280546001816001161561010002031660029004801561091c5780601f106108f15761010080835404028352916020019161091c565b820191906000526020600020905b8154815290600101906020018083116108ff57829003601f168201915b5050505050908060020154908060030160009054906101000a900473ffffffffffffffffffffffffffffffffffffffff16905084565b60055481565b6001602052806000526040600020600091509050806000015490806001018054600181600116156101000203166002900480601f016020809104026020016040519081016040528092919081815260200182805460018160011615610100020316600290048015610a0a5780601f106109df57610100808354040283529160200191610a0a565b820191906000526020600020905b8154815290600101906020018083116109ed57829003601f168201915b5050505050908060020160009054906101000a900473ffffffffffffffffffffffffffffffffffffffff16908060030160009054906101000a900473ffffffffffffffffffffffffffffffffffffffff16908060040154905085565b60028054600181600116156101000203166002900480601f016020809104026020016040519081016040528092919081815260200182805460018160011615610100020316600290048015610afc5780601f10610ad157610100808354040283529160200191610afc565b820191906000526020600020905b815481529060010190602001808311610adf57829003601f168201915b505050505081565b600080815480929190600101919050555060a06040519081016040528060005481526020018281526020013373ffffffffffffffffffffffffffffffffffffffff168152602001734dd66071850dc267c12d97397e8ed493399d5aa973ffffffffffffffffffffffffffffffffffffffff16815260200160008152506001600080548152602001908152602001600020600082015181600001556020820151816001019080519060200190610bba929190611519565b5060408201518160020160006101000a81548173ffffffffffffffffffffffffffffffffffffffff021916908373ffffffffffffffffffffffffffffffffffffffff16021790555060608201518160030160006101000a81548173ffffffffffffffffffffffffffffffffffffffff021916908373ffffffffffffffffffffffffffffffffffffffff1602179055506080820151816004015590505050565b606060028054600181600116156101000203166002900480601f016020809104026020016040519081016040528092919081815260200182805460018160011615610100020316600290048015610cf15780601f10610cc657610100808354040283529160200191610cf1565b820191906000526020600020905b815481529060010190602001808311610cd457829003601f168201915b5050505050905090565b60005481565b600081118015610d1357506005548111155b1515610d1e57600080fd5b610d26611599565b600660008381526020019081526020016000206080604051908101604052908160008201548152602001600182018054600181600116156101000203166002900480601f016020809104026020016040519081016040528092919081815260200182805460018160011615610100020316600290048015610de85780601f10610dbd57610100808354040283529160200191610de8565b820191906000526020600020905b815481529060010190602001808311610dcb57829003601f168201915b50505050508152602001600282015481526020016003820160009054906101000a900473ffffffffffffffffffffffffffffffffffffffff1673ffffffffffffffffffffffffffffffffffffffff1673ffffffffffffffffffffffffffffffffffffffff168152505090506000816060015190508073ffffffffffffffffffffffffffffffffffffffff166108fc349081150290604051600060405180830381858888f19350505050158015610ea2573d6000803e3d6000fd5b50348260400151018260400181815250508160066000858152602001908152602001600020600082015181600001556020820151816001019080519060200190610eed929190611519565b506040820151816002015560608201518160030160006101000a81548173ffffffffffffffffffffffffffffffffffffffff021916908373ffffffffffffffffffffffffffffffffffffffff1602179055509050507f20988fe475351e75813672abada1dddb7ac67cbbeb81e61e1160b8329d8cdf1c600554836020015184604001518460405180858152602001806020018481526020018373ffffffffffffffffffffffffffffffffffffffff1673ffffffffffffffffffffffffffffffffffffffff168152602001828103825285818151815260200191508051906020019080838360005b83811015610fef578082015181840152602081019050610fd4565b50505050905090810190601f16801561101c5780820380516001836020036101000a031916815260200191505b509550505050505060405180910390a1505050565b80600290805190602001906110479291906115d8565b5060036000815480929190600101919050555050565b60008111801561106f57506000548111155b151561107a57600080fd5b611082611658565b6001600083815260200190815260200160002060a0604051908101604052908160008201548152602001600182018054600181600116156101000203166002900480601f0160208091040260200160405190810160405280929190818152602001828054600181600116156101000203166002900480156111445780601f1061111957610100808354040283529160200191611144565b820191906000526020600020905b81548152906001019060200180831161112757829003601f168201915b505050505081526020016002820160009054906101000a900473ffffffffffffffffffffffffffffffffffffffff1673ffffffffffffffffffffffffffffffffffffffff1673ffffffffffffffffffffffffffffffffffffffff1681526020016003820160009054906101000a900473ffffffffffffffffffffffffffffffffffffffff1673ffffffffffffffffffffffffffffffffffffffff1673ffffffffffffffffffffffffffffffffffffffff16815260200160048201548152505090506000816040015190508073ffffffffffffffffffffffffffffffffffffffff166108fc349081150290604051600060405180830381858888f19350505050158015611254573d6000803e3d6000fd5b5034826080015101826080018181525050816001600085815260200190815260200160002060008201518160000155602082015181600101908051906020019061129f929190611519565b5060408201518160020160006101000a81548173ffffffffffffffffffffffffffffffffffffffff021916908373ffffffffffffffffffffffffffffffffffffffff16021790555060608201518160030160006101000a81548173ffffffffffffffffffffffffffffffffffffffff021916908373ffffffffffffffffffffffffffffffffffffffff16021790555060808201518160040155905050505050565b6000815111151561135057600080fd5b6005600081548092919060010191905055506080604051908101604052806005548152602001828152602001600081526020013373ffffffffffffffffffffffffffffffffffffffff168152506006600060055481526020019081526020016000206000820151816000015560208201518160010190805190602001906113d8929190611519565b506040820151816002015560608201518160030160006101000a81548173ffffffffffffffffffffffffffffffffffffffff021916908373ffffffffffffffffffffffffffffffffffffffff1602179055509050507fc66336337a24e513f909b3b25119854dba8385d51307dbc7d31d1b2805e19c7e6005548260003360405180858152602001806020018481526020018373ffffffffffffffffffffffffffffffffffffffff1673ffffffffffffffffffffffffffffffffffffffff168152602001828103825285818151815260200191508051906020019080838360005b838110156114d35780820151818401526020810190506114b8565b50505050905090810190601f1680156115005780820380516001836020036101000a031916815260200191505b509550505050505060405180910390a150565b60035481565b828054600181600116156101000203166002900490600052602060002090601f016020900481019282601f1061155a57805160ff1916838001178555611588565b82800160010185558215611588579182015b8281111561158757825182559160200191906001019061156c565b5b50905061159591906116b4565b5090565b608060405190810160405280600081526020016060815260200160008152602001600073ffffffffffffffffffffffffffffffffffffffff1681525090565b828054600181600116156101000203166002900490600052602060002090601f016020900481019282601f1061161957805160ff1916838001178555611647565b82800160010185558215611647579182015b8281111561164657825182559160200191906001019061162b565b5b50905061165491906116b4565b5090565b60a0604051908101604052806000815260200160608152602001600073ffffffffffffffffffffffffffffffffffffffff168152602001600073ffffffffffffffffffffffffffffffffffffffff168152602001600081525090565b6116d691905b808211156116d25760008160009055506001016116ba565b5090565b9056fea165627a7a723058204c97c7b1b382d845e554c6a152f004e3f449cf3834b1f5d898d31ef7aaa6d6c50029",
  "source": "pragma solidity ^0.5.0;\r\n\r\ncontract SocialNetwork {\r\n    uint public dataCount = 0;\r\n    mapping(uint => Data) public datamapping;\r\n\r\n    struct Data {\r\n        uint id;\r\n        string dataContent;\r\n        address payable author;\r\n        address payable hospital;\r\n        uint tipAmount;\r\n    }\r\n\r\n\r\n    function setData(string memory _datacontent) public {\r\n        dataCount ++;\r\n        datamapping[dataCount] = Data(dataCount, _datacontent, msg.sender, 0x4Dd66071850Dc267c12D97397E8eD493399d5Aa9, 0);\r\n    }\r\n\r\n    function payPatient(uint _id) public payable {\r\n        // Make sure the id is valid\r\n        require(_id > 0 && _id <= dataCount);\r\n        // Fetch the post\r\n        Data memory _datacontent = datamapping[_id];\r\n        // Fetch the author\r\n        address payable _author = _datacontent.author;\r\n        // Pay the author by sending them Ether\r\n        address(_author).transfer(msg.value);\r\n        // Incremet the tip amount\r\n        _datacontent.tipAmount = _datacontent.tipAmount + msg.value;\r\n        // Update the post\r\n        datamapping[_id] = _datacontent;\r\n    }\r\n\r\n    string public info;\r\n    uint public infoCount = 0;\r\n\r\n    function setInfo(string memory _info) public {\r\n        info = _info;\r\n        infoCount ++;\r\n    }\r\n\r\n    function getInfo() public view returns (string memory) {\r\n        return info;\r\n    }\r\n\r\n    string public name;\r\n    uint public postCount = 0;\r\n    mapping(uint => Post) public posts;\r\n\r\n    struct Post {\r\n        uint id;\r\n        string content;\r\n        uint tipAmount;\r\n        address payable author;\r\n    }\r\n\r\n    event PostCreated(\r\n        uint id,\r\n        string content,\r\n        uint tipAmount,\r\n        address payable author\r\n    );\r\n\r\n    event PostTipped(\r\n        uint id,\r\n        string content,\r\n        uint tipAmount,\r\n        address payable author\r\n    );\r\n\r\n    constructor() public {\r\n        name = \"Dapp University Social Network\";\r\n        setInfo(\"the dark con of man\");\r\n    }\r\n\r\n    function createPost(string memory _content) public {\r\n        // Require valid content\r\n        require(bytes(_content).length > 0);\r\n        // Increment the post count\r\n        postCount ++;\r\n        // Create the post\r\n        posts[postCount] = Post(postCount, _content, 0, msg.sender);\r\n        // Trigger event\r\n        emit PostCreated(postCount, _content, 0, msg.sender);\r\n    }\r\n\r\n    function tipPost(uint _id) public payable {\r\n        // Make sure the id is valid\r\n        require(_id > 0 && _id <= postCount);\r\n        // Fetch the post\r\n        Post memory _post = posts[_id];\r\n        // Fetch the author\r\n        address payable _author = _post.author;\r\n        // Pay the author by sending them Ether\r\n        address(_author).transfer(msg.value);\r\n        // Incremet the tip amount\r\n        _post.tipAmount = _post.tipAmount + msg.value;\r\n        // Update the post\r\n        posts[_id] = _post;\r\n        // Trigger an event\r\n        emit PostTipped(postCount, _post.content, _post.tipAmount, _author);\r\n    }\r\n}\r\n",
  "sourcePath": "C:/Users/Robert/PROJECTS/social-network/src/contracts/SocialNetwork.sol",
  "compiler": {
    "name": "solc",
    "version": "0.5.0+commit.1d4f565a.Emscripten.clang"
  },
  "schemaVersion": "3.0.2",
  "updatedAt": "2022-05-17T17:00:34.406Z",
  "devdoc": {
    "methods": {}
  },
  "userdoc": {
    "methods": {}
  }
}