{
  "contractName": "SocialNetwork",
  "abi": [
    {
      "constant": true,
      "inputs": [],
      "name": "dataCount",
      "outputs": [
        {
          "internalType": "uint256",
          "name": "",
          "type": "uint256"
        }
      ],
      "payable": false,
      "stateMutability": "view",
      "type": "function"
    },
    {
      "constant": true,
      "inputs": [
        {
          "internalType": "uint256",
          "name": "",
          "type": "uint256"
        }
      ],
      "name": "datamapping",
      "outputs": [
        {
          "internalType": "uint256",
          "name": "id",
          "type": "uint256"
        },
        {
          "internalType": "string",
          "name": "dataContent",
          "type": "string"
        },
        {
          "internalType": "address payable",
          "name": "author",
          "type": "address"
        },
        {
          "internalType": "address payable",
          "name": "hospital",
          "type": "address"
        },
        {
          "internalType": "uint256",
          "name": "tipAmount",
          "type": "uint256"
        }
      ],
      "payable": false,
      "stateMutability": "view",
      "type": "function"
    },
    {
      "constant": false,
      "inputs": [
        {
          "internalType": "string",
          "name": "_datacontent",
          "type": "string"
        }
      ],
      "name": "setData",
      "outputs": [],
      "payable": false,
      "stateMutability": "nonpayable",
      "type": "function"
    },
    {
      "constant": false,
      "inputs": [
        {
          "internalType": "uint256",
          "name": "_id",
          "type": "uint256"
        }
      ],
      "name": "deleteData",
      "outputs": [],
      "payable": false,
      "stateMutability": "nonpayable",
      "type": "function"
    },
    {
      "constant": false,
      "inputs": [
        {
          "internalType": "uint256",
          "name": "_i",
          "type": "uint256"
        },
        {
          "internalType": "string",
          "name": "_datacontent",
          "type": "string"
        }
      ],
      "name": "editData",
      "outputs": [],
      "payable": false,
      "stateMutability": "nonpayable",
      "type": "function"
    },
    {
      "constant": false,
      "inputs": [
        {
          "internalType": "uint256",
          "name": "_id",
          "type": "uint256"
        }
      ],
      "name": "payPatient",
      "outputs": [],
      "payable": true,
      "stateMutability": "payable",
      "type": "function"
    }
  ],
  "bytecode": "0x60806040526000805534801561001457600080fd5b50610c86806100246000396000f3fe6080604052600436106100555760003560e01c8063293ec1711461005a57806347064d6a146101825780634fe8b4c11461024a5780635da40c4714610285578063762b7370146102b05780639417f19914610382575b600080fd5b34801561006657600080fd5b506100936004803603602081101561007d57600080fd5b81019080803590602001909291905050506103b0565b60405180868152602001806020018573ffffffffffffffffffffffffffffffffffffffff1673ffffffffffffffffffffffffffffffffffffffff1681526020018473ffffffffffffffffffffffffffffffffffffffff1673ffffffffffffffffffffffffffffffffffffffff168152602001838152602001828103825286818151815260200191508051906020019080838360005b83811015610143578082015181840152602081019050610128565b50505050905090810190601f1680156101705780820380516001836020036101000a031916815260200191505b50965050505050505060405180910390f35b34801561018e57600080fd5b50610248600480360360208110156101a557600080fd5b81019080803590602001906401000000008111156101c257600080fd5b8201836020820111156101d457600080fd5b803590602001918460018302840111640100000000831117156101f657600080fd5b91908080601f016020809104026020016040519081016040528093929190818152602001838380828437600081840152601f19601f8201169050808301925050505050505091929192905050506104be565b005b34801561025657600080fd5b506102836004803603602081101561026d57600080fd5b8101908080359060200190929190505050610612565b005b34801561029157600080fd5b5061029a6106ab565b6040518082815260200191505060405180910390f35b3480156102bc57600080fd5b50610380600480360360408110156102d357600080fd5b8101908080359060200190929190803590602001906401000000008111156102fa57600080fd5b82018360208201111561030c57600080fd5b8035906020019184600183028401116401000000008311171561032e57600080fd5b91908080601f016020809104026020016040519081016040528093929190818152602001838380828437600081840152601f19601f8201169050808301925050505050505091929192905050506106b1565b005b6103ae6004803603602081101561039857600080fd5b8101908080359060200190929190505050610829565b005b6001602052806000526040600020600091509050806000015490806001018054600181600116156101000203166002900480601f0160208091040260200160405190810160405280929190818152602001828054600181600116156101000203166002900480156104625780601f1061043757610100808354040283529160200191610462565b820191906000526020600020905b81548152906001019060200180831161044557829003601f168201915b5050505050908060020160009054906101000a900473ffffffffffffffffffffffffffffffffffffffff16908060030160009054906101000a900473ffffffffffffffffffffffffffffffffffffffff16908060040154905085565b60008081548092919060010191905055506040518060a0016040528060005481526020018281526020013373ffffffffffffffffffffffffffffffffffffffff168152602001734dd66071850dc267c12d97397e8ed493399d5aa973ffffffffffffffffffffffffffffffffffffffff16815260200160008152506001600080548152602001908152602001600020600082015181600001556020820151816001019080519060200190610573929190610b09565b5060408201518160020160006101000a81548173ffffffffffffffffffffffffffffffffffffffff021916908373ffffffffffffffffffffffffffffffffffffffff16021790555060608201518160030160006101000a81548173ffffffffffffffffffffffffffffffffffffffff021916908373ffffffffffffffffffffffffffffffffffffffff1602179055506080820151816004015590505050565b6001600082815260200190815260200160002060008082016000905560018201600061063e9190610b89565b6002820160006101000a81549073ffffffffffffffffffffffffffffffffffffffff02191690556003820160006101000a81549073ffffffffffffffffffffffffffffffffffffffff02191690556004820160009055505060008081548092919060019003919050555050565b60005481565b6040518060a001604052808381526020018281526020013373ffffffffffffffffffffffffffffffffffffffff1681526020016001600085815260200190815260200160002060030160009054906101000a900473ffffffffffffffffffffffffffffffffffffffff1673ffffffffffffffffffffffffffffffffffffffff168152602001600160008581526020019081526020016000206004015481525060016000848152602001908152602001600020600082015181600001556020820151816001019080519060200190610789929190610b09565b5060408201518160020160006101000a81548173ffffffffffffffffffffffffffffffffffffffff021916908373ffffffffffffffffffffffffffffffffffffffff16021790555060608201518160030160006101000a81548173ffffffffffffffffffffffffffffffffffffffff021916908373ffffffffffffffffffffffffffffffffffffffff160217905550608082015181600401559050505050565b60008111801561083b57506000548111155b61084457600080fd5b61084c610bd1565b600160008381526020019081526020016000206040518060a001604052908160008201548152602001600182018054600181600116156101000203166002900480601f01602080910402602001604051908101604052809291908181526020018280546001816001161561010002031660029004801561090d5780601f106108e25761010080835404028352916020019161090d565b820191906000526020600020905b8154815290600101906020018083116108f057829003601f168201915b505050505081526020016002820160009054906101000a900473ffffffffffffffffffffffffffffffffffffffff1673ffffffffffffffffffffffffffffffffffffffff1673ffffffffffffffffffffffffffffffffffffffff1681526020016003820160009054906101000a900473ffffffffffffffffffffffffffffffffffffffff1673ffffffffffffffffffffffffffffffffffffffff1673ffffffffffffffffffffffffffffffffffffffff16815260200160048201548152505090506000816040015190508073ffffffffffffffffffffffffffffffffffffffff166108fc349081150290604051600060405180830381858888f19350505050158015610a1d573d6000803e3d6000fd5b50348260800151018260800181815250508160016000858152602001908152602001600020600082015181600001556020820151816001019080519060200190610a68929190610b09565b5060408201518160020160006101000a81548173ffffffffffffffffffffffffffffffffffffffff021916908373ffffffffffffffffffffffffffffffffffffffff16021790555060608201518160030160006101000a81548173ffffffffffffffffffffffffffffffffffffffff021916908373ffffffffffffffffffffffffffffffffffffffff16021790555060808201518160040155905050505050565b828054600181600116156101000203166002900490600052602060002090601f016020900481019282601f10610b4a57805160ff1916838001178555610b78565b82800160010185558215610b78579182015b82811115610b77578251825591602001919060010190610b5c565b5b509050610b859190610c2c565b5090565b50805460018160011615610100020316600290046000825580601f10610baf5750610bce565b601f016020900490600052602060002090810190610bcd9190610c2c565b5b50565b6040518060a001604052806000815260200160608152602001600073ffffffffffffffffffffffffffffffffffffffff168152602001600073ffffffffffffffffffffffffffffffffffffffff168152602001600081525090565b610c4e91905b80821115610c4a576000816000905550600101610c32565b5090565b9056fea265627a7a723158203d936a6e82168af673176c5b1cd1c7036affe1989305812a49dc98db046d9a8064736f6c63430005100032",
  "source": "pragma solidity ^0.5.10;\r\n\r\ncontract SocialNetwork {\r\n    uint public dataCount = 0;\r\n    mapping(uint => Data) public datamapping;\r\n\r\n    struct Data {\r\n        uint id;\r\n        string dataContent;\r\n        address payable author;\r\n        address payable hospital;\r\n        uint tipAmount;\r\n        }\r\n\r\n    function setData(string memory _datacontent) public {\r\n      dataCount++;\r\n      datamapping[dataCount] = Data(dataCount, _datacontent, msg.sender, 0x4Dd66071850Dc267c12D97397E8eD493399d5Aa9, 0);\r\n\r\n    }\r\n\r\n    function deleteData(uint _id) public {\r\n      delete datamapping[_id];\r\n      dataCount--;\r\n    }\r\n\r\n    function editData(uint _i, string memory _datacontent) public {\r\n      datamapping[_i] = Data(_i, _datacontent, msg.sender, datamapping[_i].hospital, datamapping[_i].tipAmount);\r\n    }\r\n\r\n    function payPatient(uint _id) public payable {\r\n    // Make sure the id is valid\r\n    require(_id > 0 && _id <= dataCount);\r\n    // Fetch the post\r\n    Data memory _datacontent = datamapping[_id];\r\n    // Fetch the author\r\n    address payable _author = _datacontent.author;\r\n    // Pay the author by sending them Ether\r\n    address(_author).transfer(msg.value);\r\n    // Incremet the tip amount\r\n    _datacontent.tipAmount = _datacontent.tipAmount + msg.value;\r\n    // Update the post\r\n    datamapping[_id] = _datacontent;\r\n    }\r\n}\r\n",
  "sourcePath": "C:\\Users\\RobertKottelin\\PROJECTS\\BrainDump2\\contracts\\SocialNetwork.sol",
  "compiler": {
    "name": "solc",
    "version": "0.5.16+commit.9c3226ce.Emscripten.clang"
  },
  "schemaVersion": "3.0.23",
  "updatedAt": "2022-06-22T13:21:57.468Z",
  "networkType": "ethereum",
  "devdoc": {
    "methods": {}
  },
  "userdoc": {
    "methods": {}
  }
}