{
  "contractName": "YourContract",
  "abi": [
    {
      "inputs": [],
      "payable": false,
      "stateMutability": "nonpayable",
      "type": "constructor"
    },
    {
      "constant": true,
      "inputs": [],
      "name": "recordID",
      "outputs": [
        {
          "internalType": "uint256",
          "name": "",
          "type": "uint256"
        }
      ],
      "payable": false,
      "stateMutability": "view",
      "type": "function"
    },
    {
      "constant": true,
      "inputs": [],
      "name": "thisRecordID",
      "outputs": [
        {
          "internalType": "uint256",
          "name": "",
          "type": "uint256"
        }
      ],
      "payable": false,
      "stateMutability": "view",
      "type": "function"
    },
    {
      "constant": false,
      "inputs": [
        {
          "internalType": "address",
          "name": "_patientAddress",
          "type": "address"
        },
        {
          "internalType": "address",
          "name": "_hospital",
          "type": "address"
        },
        {
          "internalType": "uint256",
          "name": "_admissionDate",
          "type": "uint256"
        },
        {
          "internalType": "uint256",
          "name": "_dischargeDate",
          "type": "uint256"
        },
        {
          "internalType": "uint256",
          "name": "_visitReason",
          "type": "uint256"
        }
      ],
      "name": "addRecord",
      "outputs": [],
      "payable": false,
      "stateMutability": "nonpayable",
      "type": "function"
    },
    {
      "constant": true,
      "inputs": [
        {
          "internalType": "address",
          "name": "_patientAddress",
          "type": "address"
        },
        {
          "internalType": "uint256",
          "name": "_recordID",
          "type": "uint256"
        }
      ],
      "name": "getmappingStruct",
      "outputs": [
        {
          "components": [
            {
              "internalType": "address",
              "name": "patient",
              "type": "address"
            },
            {
              "internalType": "address",
              "name": "hospital",
              "type": "address"
            },
            {
              "internalType": "uint256",
              "name": "admissionDate",
              "type": "uint256"
            },
            {
              "internalType": "uint256",
              "name": "dischargeDate",
              "type": "uint256"
            },
            {
              "internalType": "uint256",
              "name": "visitReason",
              "type": "uint256"
            },
            {
              "internalType": "uint256",
              "name": "thisRecordID",
              "type": "uint256"
            }
          ],
          "internalType": "struct YourContract.Records",
          "name": "",
          "type": "tuple"
        }
      ],
      "payable": false,
      "stateMutability": "view",
      "type": "function"
    },
    {
      "constant": false,
      "inputs": [
        {
          "internalType": "address",
          "name": "_patientAddress",
          "type": "address"
        }
      ],
      "name": "getRecordByAddressStruct",
      "outputs": [
        {
          "components": [
            {
              "internalType": "address",
              "name": "patient",
              "type": "address"
            },
            {
              "internalType": "address",
              "name": "hospital",
              "type": "address"
            },
            {
              "internalType": "uint256",
              "name": "admissionDate",
              "type": "uint256"
            },
            {
              "internalType": "uint256",
              "name": "dischargeDate",
              "type": "uint256"
            },
            {
              "internalType": "uint256",
              "name": "visitReason",
              "type": "uint256"
            },
            {
              "internalType": "uint256",
              "name": "thisRecordID",
              "type": "uint256"
            }
          ],
          "internalType": "struct YourContract.Records[]",
          "name": "",
          "type": "tuple[]"
        }
      ],
      "payable": false,
      "stateMutability": "nonpayable",
      "type": "function"
    },
    {
      "constant": true,
      "inputs": [
        {
          "internalType": "address",
          "name": "_patientAddress",
          "type": "address"
        }
      ],
      "name": "getRecordByAddressMap",
      "outputs": [
        {
          "components": [
            {
              "internalType": "address",
              "name": "patient",
              "type": "address"
            },
            {
              "internalType": "address",
              "name": "hospital",
              "type": "address"
            },
            {
              "internalType": "uint256",
              "name": "admissionDate",
              "type": "uint256"
            },
            {
              "internalType": "uint256",
              "name": "dischargeDate",
              "type": "uint256"
            },
            {
              "internalType": "uint256",
              "name": "visitReason",
              "type": "uint256"
            },
            {
              "internalType": "uint256",
              "name": "thisRecordID",
              "type": "uint256"
            }
          ],
          "internalType": "struct YourContract.Records[]",
          "name": "",
          "type": "tuple[]"
        }
      ],
      "payable": false,
      "stateMutability": "view",
      "type": "function"
    },
    {
      "constant": false,
      "inputs": [
        {
          "internalType": "address",
          "name": "_patientAddress",
          "type": "address"
        },
        {
          "internalType": "uint256",
          "name": "_recordID",
          "type": "uint256"
        }
      ],
      "name": "deleteRecord",
      "outputs": [],
      "payable": false,
      "stateMutability": "nonpayable",
      "type": "function"
    }
  ],
  "bytecode": "0x608060405260008055600060015534801561001957600080fd5b5061005e733719db98b075ff10886fc29431ffc2006fff000573f39fd6e51aad88f6f4ce6ab8827279cfffb9226663013489a063013489aa600161012760201b60201c565b61009e733719db98b075ff10886fc29431ffc2006fff000573f39fd6e51aad88f6f4ce6ab8827279cfffb9226663013489ad80600261012760201b60201c565b6100de733719db98b075ff10886fc29431ffc2006fff000573f39fd6e51aad88f6f4ce6ab8827279cfffb9226663013489ad80600961012760201b60201c565b6101227360814db6b62fe178d7f91239078e3c20fb857e0473f39fd6e51aad88f6f4ce6ab8827279cfffb9226663013489966301348997600361012760201b60201c565b61051e565b84600260008054815260200190815260200160002060008773ffffffffffffffffffffffffffffffffffffffff1673ffffffffffffffffffffffffffffffffffffffff16815260200190815260200160002060000160006101000a81548173ffffffffffffffffffffffffffffffffffffffff021916908373ffffffffffffffffffffffffffffffffffffffff16021790555083600260008054815260200190815260200160002060008773ffffffffffffffffffffffffffffffffffffffff1673ffffffffffffffffffffffffffffffffffffffff16815260200190815260200160002060010160006101000a81548173ffffffffffffffffffffffffffffffffffffffff021916908373ffffffffffffffffffffffffffffffffffffffff16021790555082600260008054815260200190815260200160002060008773ffffffffffffffffffffffffffffffffffffffff1673ffffffffffffffffffffffffffffffffffffffff1681526020019081526020016000206002018190555081600260008054815260200190815260200160002060008773ffffffffffffffffffffffffffffffffffffffff1673ffffffffffffffffffffffffffffffffffffffff1681526020019081526020016000206003018190555080600260008054815260200190815260200160002060008773ffffffffffffffffffffffffffffffffffffffff1673ffffffffffffffffffffffffffffffffffffffff16815260200190815260200160002060040181905550600154600260008054815260200190815260200160002060008773ffffffffffffffffffffffffffffffffffffffff1673ffffffffffffffffffffffffffffffffffffffff1681526020019081526020016000206005018190555060036040518060c001604052808773ffffffffffffffffffffffffffffffffffffffff1681526020018673ffffffffffffffffffffffffffffffffffffffff1681526020018581526020018481526020018381526020016001548152509080600181540180825580915050906001820390600052602060002090600602016000909192909190915060008201518160000160006101000a81548173ffffffffffffffffffffffffffffffffffffffff021916908373ffffffffffffffffffffffffffffffffffffffff16021790555060208201518160010160006101000a81548173ffffffffffffffffffffffffffffffffffffffff021916908373ffffffffffffffffffffffffffffffffffffffff16021790555060408201518160020155606082015181600301556080820151816004015560a0820151816005015550505060008081548092919060010191905055506001600081548092919060010191905055505050505050565b6112b18061052d6000396000f3fe608060405234801561001057600080fd5b506004361061007d5760003560e01c8063702c0c0f1161005b578063702c0c0f146100ec578063d6665e2c1461011c578063ddd15e871461013a578063fcbbf844146101565761007d565b8063210661b7146100825780632b4bc4b01461009e5780633e9d5662146100ce575b600080fd5b61009c60048036036100979190810190610f9e565b610186565b005b6100b860048036036100b39190810190610f9e565b61024b565b6040516100c59190611195565b60405180910390f35b6100d661038a565b6040516100e391906111b0565b60405180910390f35b61010660048036036101019190810190610efe565b610390565b6040516101139190611173565b60405180910390f35b6101246105f6565b60405161013191906111b0565b60405180910390f35b610154600480360361014f9190810190610f27565b6105fc565b005b610170600480360361016b9190810190610efe565b6109f3565b60405161017d9190611173565b60405180910390f35b6002600082815260200190815260200160002060008373ffffffffffffffffffffffffffffffffffffffff1673ffffffffffffffffffffffffffffffffffffffff168152602001908152602001600020600080820160006101000a81549073ffffffffffffffffffffffffffffffffffffffff02191690556001820160006101000a81549073ffffffffffffffffffffffffffffffffffffffff0219169055600282016000905560038201600090556004820160009055600582016000905550505050565b610253610e10565b6002600083815260200190815260200160002060008473ffffffffffffffffffffffffffffffffffffffff1673ffffffffffffffffffffffffffffffffffffffff1681526020019081526020016000206040518060c00160405290816000820160009054906101000a900473ffffffffffffffffffffffffffffffffffffffff1673ffffffffffffffffffffffffffffffffffffffff1673ffffffffffffffffffffffffffffffffffffffff1681526020016001820160009054906101000a900473ffffffffffffffffffffffffffffffffffffffff1673ffffffffffffffffffffffffffffffffffffffff1673ffffffffffffffffffffffffffffffffffffffff168152602001600282015481526020016003820154815260200160048201548152602001600582015481525050905092915050565b60005481565b6060806000546040519080825280602002602001820160405280156103cf57816020015b6103bc610e72565b8152602001906001900390816103b45790505b50905060008090505b815181116105ec57600115156002600083815260200190815260200160002060008673ffffffffffffffffffffffffffffffffffffffff1673ffffffffffffffffffffffffffffffffffffffff16815260200190815260200160002060000160009054906101000a900473ffffffffffffffffffffffffffffffffffffffff1673ffffffffffffffffffffffffffffffffffffffff168573ffffffffffffffffffffffffffffffffffffffff1614151514156105d9576002600082815260200190815260200160002060008573ffffffffffffffffffffffffffffffffffffffff1673ffffffffffffffffffffffffffffffffffffffff1681526020019081526020016000206040518060c00160405290816000820160009054906101000a900473ffffffffffffffffffffffffffffffffffffffff1673ffffffffffffffffffffffffffffffffffffffff1673ffffffffffffffffffffffffffffffffffffffff1681526020016001820160009054906101000a900473ffffffffffffffffffffffffffffffffffffffff1673ffffffffffffffffffffffffffffffffffffffff1673ffffffffffffffffffffffffffffffffffffffff1681526020016002820154815260200160038201548152602001600482015481526020016005820154815250508282815181106105c957fe5b60200260200101819052506105de565b6105df565b5b80806001019150506103d8565b5080915050919050565b60015481565b84600260008054815260200190815260200160002060008773ffffffffffffffffffffffffffffffffffffffff1673ffffffffffffffffffffffffffffffffffffffff16815260200190815260200160002060000160006101000a81548173ffffffffffffffffffffffffffffffffffffffff021916908373ffffffffffffffffffffffffffffffffffffffff16021790555083600260008054815260200190815260200160002060008773ffffffffffffffffffffffffffffffffffffffff1673ffffffffffffffffffffffffffffffffffffffff16815260200190815260200160002060010160006101000a81548173ffffffffffffffffffffffffffffffffffffffff021916908373ffffffffffffffffffffffffffffffffffffffff16021790555082600260008054815260200190815260200160002060008773ffffffffffffffffffffffffffffffffffffffff1673ffffffffffffffffffffffffffffffffffffffff1681526020019081526020016000206002018190555081600260008054815260200190815260200160002060008773ffffffffffffffffffffffffffffffffffffffff1673ffffffffffffffffffffffffffffffffffffffff1681526020019081526020016000206003018190555080600260008054815260200190815260200160002060008773ffffffffffffffffffffffffffffffffffffffff1673ffffffffffffffffffffffffffffffffffffffff16815260200190815260200160002060040181905550600154600260008054815260200190815260200160002060008773ffffffffffffffffffffffffffffffffffffffff1673ffffffffffffffffffffffffffffffffffffffff1681526020019081526020016000206005018190555060036040518060c001604052808773ffffffffffffffffffffffffffffffffffffffff1681526020018673ffffffffffffffffffffffffffffffffffffffff1681526020018581526020018481526020018381526020016001548152509080600181540180825580915050906001820390600052602060002090600602016000909192909190915060008201518160000160006101000a81548173ffffffffffffffffffffffffffffffffffffffff021916908373ffffffffffffffffffffffffffffffffffffffff16021790555060208201518160010160006101000a81548173ffffffffffffffffffffffffffffffffffffffff021916908373ffffffffffffffffffffffffffffffffffffffff16021790555060408201518160020155606082015181600301556080820151816004015560a0820151816005015550505060008081548092919060010191905055506001600081548092919060010191905055505050505050565b606060006004905060008090505b8180549050811015610cdc576001151560038281548110610a1e57fe5b906000526020600020906006020160000160009054906101000a900473ffffffffffffffffffffffffffffffffffffffff1673ffffffffffffffffffffffffffffffffffffffff168573ffffffffffffffffffffffffffffffffffffffff161415151415610cc957610a8e610e10565b6040518060c0016040528060038481548110610aa657fe5b906000526020600020906006020160000160009054906101000a900473ffffffffffffffffffffffffffffffffffffffff1673ffffffffffffffffffffffffffffffffffffffff16815260200160038481548110610b0057fe5b906000526020600020906006020160010160009054906101000a900473ffffffffffffffffffffffffffffffffffffffff1673ffffffffffffffffffffffffffffffffffffffff16815260200160038481548110610b5a57fe5b906000526020600020906006020160020154815260200160038481548110610b7e57fe5b906000526020600020906006020160030154815260200160038481548110610ba257fe5b906000526020600020906006020160040154815260200160038481548110610bc657fe5b906000526020600020906006020160040154815250905082819080600181540180825580915050906001820390600052602060002090600602016000909192909190915060008201518160000160006101000a81548173ffffffffffffffffffffffffffffffffffffffff021916908373ffffffffffffffffffffffffffffffffffffffff16021790555060208201518160010160006101000a81548173ffffffffffffffffffffffffffffffffffffffff021916908373ffffffffffffffffffffffffffffffffffffffff16021790555060408201518160020155606082015181600301556080820151816004015560a0820151816005015550505050610cce565b610ccf565b5b8080600101915050610a01565b5080805480602002602001604051908101604052809291908181526020016000905b82821015610e0457838290600052602060002090600602016040518060c00160405290816000820160009054906101000a900473ffffffffffffffffffffffffffffffffffffffff1673ffffffffffffffffffffffffffffffffffffffff1673ffffffffffffffffffffffffffffffffffffffff1681526020016001820160009054906101000a900473ffffffffffffffffffffffffffffffffffffffff1673ffffffffffffffffffffffffffffffffffffffff1673ffffffffffffffffffffffffffffffffffffffff16815260200160028201548152602001600382015481526020016004820154815260200160058201548152505081526020019060010190610cfe565b50505050915050919050565b6040518060c00160405280600073ffffffffffffffffffffffffffffffffffffffff168152602001600073ffffffffffffffffffffffffffffffffffffffff168152602001600081526020016000815260200160008152602001600081525090565b6040518060c00160405280600073ffffffffffffffffffffffffffffffffffffffff168152602001600073ffffffffffffffffffffffffffffffffffffffff168152602001600081526020016000815260200160008152602001600081525090565b600081359050610ee381611240565b92915050565b600081359050610ef881611257565b92915050565b600060208284031215610f1057600080fd5b6000610f1e84828501610ed4565b91505092915050565b600080600080600060a08688031215610f3f57600080fd5b6000610f4d88828901610ed4565b9550506020610f5e88828901610ed4565b9450506040610f6f88828901610ee9565b9350506060610f8088828901610ee9565b9250506080610f9188828901610ee9565b9150509295509295909350565b60008060408385031215610fb157600080fd5b6000610fbf85828601610ed4565b9250506020610fd085828601610ee9565b9150509250929050565b6000610fe683836110da565b60c08301905092915050565b610ffb81611204565b82525050565b600061100c826111db565b61101681856111f3565b9350611021836111cb565b8060005b838110156110525781516110398882610fda565b9750611044836111e6565b925050600181019050611025565b5085935050505092915050565b60c0820160008201516110756000850182610ff2565b5060208201516110886020850182610ff2565b50604082015161109b6040850182611155565b5060608201516110ae6060850182611155565b5060808201516110c16080850182611155565b5060a08201516110d460a0850182611155565b50505050565b60c0820160008201516110f06000850182610ff2565b5060208201516111036020850182610ff2565b5060408201516111166040850182611155565b5060608201516111296060850182611155565b50608082015161113c6080850182611155565b5060a082015161114f60a0850182611155565b50505050565b61115e81611236565b82525050565b61116d81611236565b82525050565b6000602082019050818103600083015261118d8184611001565b905092915050565b600060c0820190506111aa600083018461105f565b92915050565b60006020820190506111c56000830184611164565b92915050565b6000819050602082019050919050565b600081519050919050565b6000602082019050919050565b600082825260208201905092915050565b600061120f82611216565b9050919050565b600073ffffffffffffffffffffffffffffffffffffffff82169050919050565b6000819050919050565b61124981611204565b811461125457600080fd5b50565b61126081611236565b811461126b57600080fd5b5056fea365627a7a723158202611e1f72fe69fc05a0d6752e6fcd5d871f31ea217ddbf06069d9104fdf6d2746c6578706572696d656e74616cf564736f6c63430005100040",
  "source": "pragma solidity >=0.4.0 <0.9.0;\r\npragma experimental ABIEncoderV2;\r\n//SPDX-License-Identifier: MIT\r\n\r\n//import \"./PayableContract.sol\";\r\n// import \"@openzeppelin/contracts/access/Ownable.sol\"; \r\n// https://github.com/OpenZeppelin/openzeppelin-contracts/blob/master/contracts/access/Ownable.sol\r\n\r\ncontract YourContract {\r\n\r\n  // EVENTS\r\n\r\n  // STORAGE, MAPPINGS, STRUCTS\r\n\r\n  uint256 public recordID = 0;\r\n  uint256 public thisRecordID = 0;\r\n  mapping (uint256 => mapping (address => Records)) records;\r\n  //mapping (address => Records) records;\r\n\r\n  struct Records {\r\n      address patient;\r\n      address hospital;\r\n      uint256 admissionDate;\r\n      uint256 dischargeDate;\r\n      uint256 visitReason;\r\n      uint256 thisRecordID;\r\n  }\r\n\r\n  Records[] recordsarray;\r\n  Records[] getstructs;\r\n\r\n  // FUNCTIONS\r\n\r\n  constructor() public {\r\n      addRecord(0x3719dB98b075Ff10886Fc29431Ffc2006fFF0005, \r\n        0xf39Fd6e51aad88F6F4ce6aB8827279cffFb92266, 20220320, 20220330, 1);\r\n      addRecord(0x3719dB98b075Ff10886Fc29431Ffc2006fFF0005, \r\n        0xf39Fd6e51aad88F6F4ce6aB8827279cffFb92266, 20220333, 20220333, 2);\r\n      addRecord(0x3719dB98b075Ff10886Fc29431Ffc2006fFF0005, \r\n        0xf39Fd6e51aad88F6F4ce6aB8827279cffFb92266, 20220333, 20220333, 9);\r\n      addRecord(0x60814DB6b62fE178d7F91239078e3c20fB857E04, \r\n        0xf39Fd6e51aad88F6F4ce6aB8827279cffFb92266, 20220310, 20220311, 3);\r\n  }\r\n\r\n  function addRecord (\r\n    address _patientAddress,\r\n    address _hospital,\r\n    uint256 _admissionDate,\r\n    uint256 _dischargeDate,\r\n    uint256 _visitReason)\r\n    public\r\n  {\r\n      //records[recordCount][_patientAddress].providedName = _name;\r\n      records[recordID][_patientAddress].patient = _patientAddress;\r\n      records[recordID][_patientAddress].hospital = _hospital;\r\n      records[recordID][_patientAddress].admissionDate = _admissionDate;\r\n      records[recordID][_patientAddress].dischargeDate = _dischargeDate;\r\n      records[recordID][_patientAddress].visitReason = _visitReason;\r\n      records[recordID][_patientAddress].thisRecordID = thisRecordID;\r\n\r\n      recordsarray.push(Records(_patientAddress, _hospital, _admissionDate, _dischargeDate, _visitReason, thisRecordID));\r\n      recordID++;\r\n      thisRecordID++;\r\n  }\r\n\r\n  function getmappingStruct(address _patientAddress, uint256 _recordID) public view returns(Records memory) {\r\n    return records[_recordID][_patientAddress];\r\n  }\r\n\r\n  function getRecordByAddressStruct(address _patientAddress) public returns(Records[] memory) {\r\n    Records[] storage _getstructs = getstructs;\r\n    for (uint i = 0; i < _getstructs.length; i++) {\r\n      if (_patientAddress == recordsarray[i].patient == true) {\r\n        Records memory newRecord = Records({\r\n          patient: recordsarray[i].patient,\r\n          hospital: recordsarray[i].hospital,\r\n          admissionDate: recordsarray[i].admissionDate,\r\n          dischargeDate: recordsarray[i].dischargeDate,\r\n          visitReason: recordsarray[i].visitReason,\r\n          thisRecordID: recordsarray[i].visitReason\r\n        });\r\n        _getstructs.push(newRecord);\r\n        } else {\r\n          continue;\r\n        }\r\n    }\r\n    return _getstructs;\r\n  }\r\n\r\n  function getRecordByAddressMap(address _patientAddress) public view returns (Records[] memory){\r\n    Records[] memory rec = new Records[](recordID);\r\n      for (uint i = 0; i <= rec.length; i++) {\r\n        if (_patientAddress == records[i][_patientAddress].patient == true) {\r\n          rec[i] = records[i][_patientAddress];\r\n          } else {\r\n            continue;\r\n          }\r\n      }\r\n    return rec;\r\n  }\r\n\r\n  function deleteRecord(address _patientAddress, uint256 _recordID) public {\r\n    delete records[_recordID][_patientAddress];\r\n  }\r\n\r\n}",
  "sourcePath": "C:\\Users\\RobertKottelin\\PROJECTS\\BrainDump\\src\\contracts\\Patientdata.sol",
  "compiler": {
    "name": "solc",
    "version": "0.5.16+commit.9c3226ce.Emscripten.clang"
  },
  "schemaVersion": "3.0.23",
  "updatedAt": "2022-06-26T16:40:45.372Z",
  "devdoc": {
    "methods": {}
  },
  "userdoc": {
    "methods": {}
  }
}